{
  "_format": "hh-sol-artifact-1",
  "contractName": "Escrow",
  "sourceName": "contracts/Escrow.sol",
  "abi": [
    {
      "inputs": [],
      "stateMutability": "nonpayable",
      "type": "constructor"
    },
    {
      "anonymous": false,
      "inputs": [
        {
          "indexed": true,
          "internalType": "address",
          "name": "_from",
          "type": "address"
        },
        {
          "indexed": false,
          "internalType": "uint256",
          "name": "_value",
          "type": "uint256"
        }
      ],
      "name": "Deposit",
      "type": "event"
    },
    {
      "anonymous": false,
      "inputs": [
        {
          "indexed": true,
          "internalType": "address",
          "name": "_to",
          "type": "address"
        },
        {
          "indexed": false,
          "internalType": "string",
          "name": "_value",
          "type": "string"
        }
      ],
      "name": "LinkRelease",
      "type": "event"
    },
    {
      "anonymous": false,
      "inputs": [
        {
          "indexed": true,
          "internalType": "address",
          "name": "_to",
          "type": "address"
        },
        {
          "indexed": false,
          "internalType": "uint256",
          "name": "_value",
          "type": "uint256"
        }
      ],
      "name": "Release",
      "type": "event"
    },
    {
      "anonymous": false,
      "inputs": [
        {
          "indexed": true,
          "internalType": "address",
          "name": "_to",
          "type": "address"
        },
        {
          "indexed": false,
          "internalType": "uint256",
          "name": "_value",
          "type": "uint256"
        }
      ],
      "name": "Withdrawal",
      "type": "event"
    },
    {
      "inputs": [
        {
          "internalType": "address",
          "name": "_tutor",
          "type": "address"
        },
        {
          "internalType": "uint256",
          "name": "_start_time",
          "type": "uint256"
        },
        {
          "internalType": "uint256",
          "name": "_duration",
          "type": "uint256"
        }
      ],
      "name": "depositFunds",
      "outputs": [],
      "stateMutability": "payable",
      "type": "function"
    },
    {
      "inputs": [],
      "name": "payTutor",
      "outputs": [],
      "stateMutability": "nonpayable",
      "type": "function"
    },
    {
      "inputs": [],
      "name": "refundStudent",
      "outputs": [],
      "stateMutability": "nonpayable",
      "type": "function"
    },
    {
      "inputs": [
        {
          "internalType": "uint256",
          "name": "",
          "type": "uint256"
        }
      ],
      "name": "tutorials",
      "outputs": [
        {
          "internalType": "address",
          "name": "tutor",
          "type": "address"
        },
        {
          "internalType": "address",
          "name": "tutee",
          "type": "address"
        },
        {
          "internalType": "uint256",
          "name": "cost",
          "type": "uint256"
        },
        {
          "internalType": "uint256",
          "name": "start_time",
          "type": "uint256"
        },
        {
          "internalType": "uint256",
          "name": "duration",
          "type": "uint256"
        }
      ],
      "stateMutability": "view",
      "type": "function"
    }
  ],
  "bytecode": "0x608060405234801561001057600080fd5b506104b4806100206000396000f3fe60806040526004361061003f5760003560e01c80630fc6b71314610044578063281416c9146100595780634409a0e81461006e578063b76525b9146100c5575b600080fd5b6100576100523660046103e9565b6100da565b005b34801561006557600080fd5b5061005761023e565b34801561007a57600080fd5b5061008e61008936600461042a565b610313565b604080516001600160a01b039687168152959094166020860152928401919091526060830152608082015260a00160405180910390f35b3480156100d157600080fd5b50610057610360565b6040805160a0810182526001600160a01b038086168252336020830181815234848601818152606086018981526080870189815260008054600181018255908052885160059091027f290decd9548b62a8d60345a988386fc84ba6bc95484008f6362f93160ef3e56381018054928a166001600160a01b031993841617905595517f290decd9548b62a8d60345a988386fc84ba6bc95484008f6362f93160ef3e564870180549190991691161790965590517f290decd9548b62a8d60345a988386fc84ba6bc95484008f6362f93160ef3e565840155517f290decd9548b62a8d60345a988386fc84ba6bc95484008f6362f93160ef3e56683015592517f290decd9548b62a8d60345a988386fc84ba6bc95484008f6362f93160ef3e5679091015592519192917fe1fffcc4923d04b559f4d29a8bfc6cda04eb5b0d3c460751c2402c5c5cc9109c916102309190815260200190565b60405180910390a250505050565b60008054819061025090600190610443565b8154811061026057610260610468565b600091825260208083206040805160a081018252600590940290910180546001600160a01b0390811685526001820154169284018390526002810154848301819052600382015460608601526004909101546080850152905192945090915b60006040518083038185875af1925050503d80600081146102fc576040519150601f19603f3d011682016040523d82523d6000602084013e610301565b606091505b505090508061030f57600080fd5b5050565b6000818154811061032357600080fd5b6000918252602090912060059091020180546001820154600283015460038401546004909401546001600160a01b03938416955091909216929085565b60008054819061037290600190610443565b8154811061038257610382610468565b600091825260208083206040805160a081018252600590940290910180546001600160a01b039081168086526001830154909116938501939093526002810154848301819052600382015460608601526004909101546080850152905192945090916102bf565b6000806000606084860312156103fe57600080fd5b83356001600160a01b038116811461041557600080fd5b95602085013595506040909401359392505050565b60006020828403121561043c57600080fd5b5035919050565b60008282101561046357634e487b7160e01b600052601160045260246000fd5b500390565b634e487b7160e01b600052603260045260246000fdfea264697066735822122062f7e882d54c216b9b342d6431beb6428d4d8f32aa35e13e4849ccf9ba6c193564736f6c63430008090033",
  "linkReferences": {},
  "deployedLinkReferences": {}
}