{
  "_format": "hh-sol-artifact-1",
  "contractName": "English01",
  "sourceName": "contracts/English01.sol",
  "abi": [
    {
      "inputs": [],
      "stateMutability": "nonpayable",
      "type": "constructor"
    },
    {
      "anonymous": false,
      "inputs": [
        {
          "indexed": true,
          "internalType": "address",
          "name": "owner",
          "type": "address"
        },
        {
          "indexed": true,
          "internalType": "address",
          "name": "approved",
          "type": "address"
        },
        {
          "indexed": true,
          "internalType": "uint256",
          "name": "tokenId",
          "type": "uint256"
        }
      ],
      "name": "Approval",
      "type": "event"
    },
    {
      "anonymous": false,
      "inputs": [
        {
          "indexed": true,
          "internalType": "address",
          "name": "owner",
          "type": "address"
        },
        {
          "indexed": true,
          "internalType": "address",
          "name": "operator",
          "type": "address"
        },
        {
          "indexed": false,
          "internalType": "bool",
          "name": "approved",
          "type": "bool"
        }
      ],
      "name": "ApprovalForAll",
      "type": "event"
    },
    {
      "anonymous": false,
      "inputs": [
        {
          "indexed": false,
          "internalType": "address",
          "name": "account",
          "type": "address"
        }
      ],
      "name": "Paused",
      "type": "event"
    },
    {
      "anonymous": false,
      "inputs": [
        {
          "indexed": true,
          "internalType": "bytes32",
          "name": "role",
          "type": "bytes32"
        },
        {
          "indexed": true,
          "internalType": "bytes32",
          "name": "previousAdminRole",
          "type": "bytes32"
        },
        {
          "indexed": true,
          "internalType": "bytes32",
          "name": "newAdminRole",
          "type": "bytes32"
        }
      ],
      "name": "RoleAdminChanged",
      "type": "event"
    },
    {
      "anonymous": false,
      "inputs": [
        {
          "indexed": true,
          "internalType": "bytes32",
          "name": "role",
          "type": "bytes32"
        },
        {
          "indexed": true,
          "internalType": "address",
          "name": "account",
          "type": "address"
        },
        {
          "indexed": true,
          "internalType": "address",
          "name": "sender",
          "type": "address"
        }
      ],
      "name": "RoleGranted",
      "type": "event"
    },
    {
      "anonymous": false,
      "inputs": [
        {
          "indexed": true,
          "internalType": "bytes32",
          "name": "role",
          "type": "bytes32"
        },
        {
          "indexed": true,
          "internalType": "address",
          "name": "account",
          "type": "address"
        },
        {
          "indexed": true,
          "internalType": "address",
          "name": "sender",
          "type": "address"
        }
      ],
      "name": "RoleRevoked",
      "type": "event"
    },
    {
      "anonymous": false,
      "inputs": [
        {
          "indexed": true,
          "internalType": "address",
          "name": "from",
          "type": "address"
        },
        {
          "indexed": true,
          "internalType": "address",
          "name": "to",
          "type": "address"
        },
        {
          "indexed": true,
          "internalType": "uint256",
          "name": "tokenId",
          "type": "uint256"
        }
      ],
      "name": "Transfer",
      "type": "event"
    },
    {
      "anonymous": false,
      "inputs": [
        {
          "indexed": false,
          "internalType": "address",
          "name": "account",
          "type": "address"
        }
      ],
      "name": "Unpaused",
      "type": "event"
    },
    {
      "inputs": [],
      "name": "DEFAULT_ADMIN_ROLE",
      "outputs": [
        {
          "internalType": "bytes32",
          "name": "",
          "type": "bytes32"
        }
      ],
      "stateMutability": "view",
      "type": "function"
    },
    {
      "inputs": [],
      "name": "MINTER_ROLE",
      "outputs": [
        {
          "internalType": "bytes32",
          "name": "",
          "type": "bytes32"
        }
      ],
      "stateMutability": "view",
      "type": "function"
    },
    {
      "inputs": [],
      "name": "PAUSER_ROLE",
      "outputs": [
        {
          "internalType": "bytes32",
          "name": "",
          "type": "bytes32"
        }
      ],
      "stateMutability": "view",
      "type": "function"
    },
    {
      "inputs": [
        {
          "internalType": "address",
          "name": "to",
          "type": "address"
        },
        {
          "internalType": "uint256",
          "name": "tokenId",
          "type": "uint256"
        }
      ],
      "name": "approve",
      "outputs": [],
      "stateMutability": "nonpayable",
      "type": "function"
    },
    {
      "inputs": [
        {
          "internalType": "address",
          "name": "owner",
          "type": "address"
        }
      ],
      "name": "balanceOf",
      "outputs": [
        {
          "internalType": "uint256",
          "name": "",
          "type": "uint256"
        }
      ],
      "stateMutability": "view",
      "type": "function"
    },
    {
      "inputs": [
        {
          "internalType": "uint256",
          "name": "tokenId",
          "type": "uint256"
        }
      ],
      "name": "burn",
      "outputs": [],
      "stateMutability": "nonpayable",
      "type": "function"
    },
    {
      "inputs": [
        {
          "internalType": "uint256",
          "name": "tokenId",
          "type": "uint256"
        }
      ],
      "name": "getApproved",
      "outputs": [
        {
          "internalType": "address",
          "name": "",
          "type": "address"
        }
      ],
      "stateMutability": "view",
      "type": "function"
    },
    {
      "inputs": [
        {
          "internalType": "bytes32",
          "name": "role",
          "type": "bytes32"
        }
      ],
      "name": "getRoleAdmin",
      "outputs": [
        {
          "internalType": "bytes32",
          "name": "",
          "type": "bytes32"
        }
      ],
      "stateMutability": "view",
      "type": "function"
    },
    {
      "inputs": [
        {
          "internalType": "bytes32",
          "name": "role",
          "type": "bytes32"
        },
        {
          "internalType": "address",
          "name": "account",
          "type": "address"
        }
      ],
      "name": "grantRole",
      "outputs": [],
      "stateMutability": "nonpayable",
      "type": "function"
    },
    {
      "inputs": [
        {
          "internalType": "bytes32",
          "name": "role",
          "type": "bytes32"
        },
        {
          "internalType": "address",
          "name": "account",
          "type": "address"
        }
      ],
      "name": "hasRole",
      "outputs": [
        {
          "internalType": "bool",
          "name": "",
          "type": "bool"
        }
      ],
      "stateMutability": "view",
      "type": "function"
    },
    {
      "inputs": [
        {
          "internalType": "address",
          "name": "owner",
          "type": "address"
        },
        {
          "internalType": "address",
          "name": "operator",
          "type": "address"
        }
      ],
      "name": "isApprovedForAll",
      "outputs": [
        {
          "internalType": "bool",
          "name": "",
          "type": "bool"
        }
      ],
      "stateMutability": "view",
      "type": "function"
    },
    {
      "inputs": [],
      "name": "name",
      "outputs": [
        {
          "internalType": "string",
          "name": "",
          "type": "string"
        }
      ],
      "stateMutability": "view",
      "type": "function"
    },
    {
      "inputs": [
        {
          "internalType": "uint256",
          "name": "tokenId",
          "type": "uint256"
        }
      ],
      "name": "ownerOf",
      "outputs": [
        {
          "internalType": "address",
          "name": "",
          "type": "address"
        }
      ],
      "stateMutability": "view",
      "type": "function"
    },
    {
      "inputs": [],
      "name": "pause",
      "outputs": [],
      "stateMutability": "nonpayable",
      "type": "function"
    },
    {
      "inputs": [],
      "name": "paused",
      "outputs": [
        {
          "internalType": "bool",
          "name": "",
          "type": "bool"
        }
      ],
      "stateMutability": "view",
      "type": "function"
    },
    {
      "inputs": [
        {
          "internalType": "bytes32",
          "name": "role",
          "type": "bytes32"
        },
        {
          "internalType": "address",
          "name": "account",
          "type": "address"
        }
      ],
      "name": "renounceRole",
      "outputs": [],
      "stateMutability": "nonpayable",
      "type": "function"
    },
    {
      "inputs": [
        {
          "internalType": "bytes32",
          "name": "role",
          "type": "bytes32"
        },
        {
          "internalType": "address",
          "name": "account",
          "type": "address"
        }
      ],
      "name": "revokeRole",
      "outputs": [],
      "stateMutability": "nonpayable",
      "type": "function"
    },
    {
      "inputs": [
        {
          "internalType": "address",
          "name": "to",
          "type": "address"
        },
        {
          "internalType": "string",
          "name": "uri",
          "type": "string"
        }
      ],
      "name": "safeMint",
      "outputs": [],
      "stateMutability": "nonpayable",
      "type": "function"
    },
    {
      "inputs": [
        {
          "internalType": "address",
          "name": "from",
          "type": "address"
        },
        {
          "internalType": "address",
          "name": "to",
          "type": "address"
        },
        {
          "internalType": "uint256",
          "name": "tokenId",
          "type": "uint256"
        }
      ],
      "name": "safeTransferFrom",
      "outputs": [],
      "stateMutability": "nonpayable",
      "type": "function"
    },
    {
      "inputs": [
        {
          "internalType": "address",
          "name": "from",
          "type": "address"
        },
        {
          "internalType": "address",
          "name": "to",
          "type": "address"
        },
        {
          "internalType": "uint256",
          "name": "tokenId",
          "type": "uint256"
        },
        {
          "internalType": "bytes",
          "name": "data",
          "type": "bytes"
        }
      ],
      "name": "safeTransferFrom",
      "outputs": [],
      "stateMutability": "nonpayable",
      "type": "function"
    },
    {
      "inputs": [
        {
          "internalType": "address",
          "name": "operator",
          "type": "address"
        },
        {
          "internalType": "bool",
          "name": "approved",
          "type": "bool"
        }
      ],
      "name": "setApprovalForAll",
      "outputs": [],
      "stateMutability": "nonpayable",
      "type": "function"
    },
    {
      "inputs": [
        {
          "internalType": "bytes4",
          "name": "interfaceId",
          "type": "bytes4"
        }
      ],
      "name": "supportsInterface",
      "outputs": [
        {
          "internalType": "bool",
          "name": "",
          "type": "bool"
        }
      ],
      "stateMutability": "view",
      "type": "function"
    },
    {
      "inputs": [],
      "name": "symbol",
      "outputs": [
        {
          "internalType": "string",
          "name": "",
          "type": "string"
        }
      ],
      "stateMutability": "view",
      "type": "function"
    },
    {
      "inputs": [
        {
          "internalType": "uint256",
          "name": "tokenId",
          "type": "uint256"
        }
      ],
      "name": "tokenURI",
      "outputs": [
        {
          "internalType": "string",
          "name": "",
          "type": "string"
        }
      ],
      "stateMutability": "view",
      "type": "function"
    },
    {
      "inputs": [
        {
          "internalType": "address",
          "name": "from",
          "type": "address"
        },
        {
          "internalType": "address",
          "name": "to",
          "type": "address"
        },
        {
          "internalType": "uint256",
          "name": "tokenId",
          "type": "uint256"
        }
      ],
      "name": "transferFrom",
      "outputs": [],
      "stateMutability": "nonpayable",
      "type": "function"
    },
    {
      "inputs": [],
      "name": "unpause",
      "outputs": [],
      "stateMutability": "nonpayable",
      "type": "function"
    }
  ],
  "bytecode": "0x60806040523480156200001157600080fd5b506040805180820182526009815268456e676c697368303160b81b602080830191825283518085019094526005845264454e47303160d81b908401528151919291620000609160009162000193565b5080516200007690600190602084019062000193565b50506007805460ff191690555062000090600033620000ee565b620000bc7f65d7a28e3265b37a6474929f336521b332c1681b933f6cb9f3376673440d862a33620000ee565b620000e87f9f2df0fed2c77648de5860a4cc508cd0818c85b8b8a1ab4ceeef8d981c8956a633620000ee565b62000276565b60008281526008602090815260408083206001600160a01b038516845290915290205460ff166200018f5760008281526008602090815260408083206001600160a01b03851684529091529020805460ff191660011790556200014e3390565b6001600160a01b0316816001600160a01b0316837f2f8788117e7eff1d82e926ec794901d17c78024a50270940304540a733656f0d60405160405180910390a45b5050565b828054620001a19062000239565b90600052602060002090601f016020900481019282620001c5576000855562000210565b82601f10620001e057805160ff191683800117855562000210565b8280016001018555821562000210579182015b8281111562000210578251825591602001919060010190620001f3565b506200021e92915062000222565b5090565b5b808211156200021e576000815560010162000223565b600181811c908216806200024e57607f821691505b602082108114156200027057634e487b7160e01b600052602260045260246000fd5b50919050565b611ff980620002866000396000f3fe608060405234801561001057600080fd5b506004361061018e5760003560e01c806370a08231116100de578063b88d4fde11610097578063d539139311610071578063d539139314610350578063d547741f14610377578063e63ab1e91461038a578063e985e9c5146103b157600080fd5b8063b88d4fde14610317578063c87b56dd1461032a578063d204c45e1461033d57600080fd5b806370a08231146102c65780638456cb59146102d957806391d14854146102e157806395d89b41146102f4578063a217fddf146102fc578063a22cb4651461030457600080fd5b80632f2ff15d1161014b57806342842e0e1161012557806342842e0e1461028257806342966c68146102955780635c975abb146102a85780636352211e146102b357600080fd5b80632f2ff15d1461025457806336568abe146102675780633f4ba83a1461027a57600080fd5b806301ffc9a71461019357806306fdde03146101bb578063081812fc146101d0578063095ea7b3146101fb57806323b872dd14610210578063248a9ca314610223575b600080fd5b6101a66101a13660046119f2565b6103ed565b60405190151581526020015b60405180910390f35b6101c36103fe565b6040516101b29190611a67565b6101e36101de366004611a7a565b610490565b6040516001600160a01b0390911681526020016101b2565b61020e610209366004611aaf565b6104b7565b005b61020e61021e366004611ad9565b6105d2565b610246610231366004611a7a565b60009081526008602052604090206001015490565b6040519081526020016101b2565b61020e610262366004611b15565b610604565b61020e610275366004611b15565b610629565b61020e6106a7565b61020e610290366004611ad9565b6106dc565b61020e6102a3366004611a7a565b6106f7565b60075460ff166101a6565b6101e36102c1366004611a7a565b610725565b6102466102d4366004611b41565b610785565b61020e61080b565b6101a66102ef366004611b15565b61083d565b6101c3610868565b610246600081565b61020e610312366004611b5c565b610877565b61020e610325366004611c24565b610882565b6101c3610338366004611a7a565b6108ba565b61020e61034b366004611ca0565b6108c5565b6102467f9f2df0fed2c77648de5860a4cc508cd0818c85b8b8a1ab4ceeef8d981c8956a681565b61020e610385366004611b15565b61091e565b6102467f65d7a28e3265b37a6474929f336521b332c1681b933f6cb9f3376673440d862a81565b6101a66103bf366004611d02565b6001600160a01b03918216600090815260056020908152604080832093909416825291909152205460ff1690565b60006103f882610943565b92915050565b60606000805461040d90611d2c565b80601f016020809104026020016040519081016040528092919081815260200182805461043990611d2c565b80156104865780601f1061045b57610100808354040283529160200191610486565b820191906000526020600020905b81548152906001019060200180831161046957829003601f168201915b5050505050905090565b600061049b82610968565b506000908152600460205260409020546001600160a01b031690565b60006104c282610725565b9050806001600160a01b0316836001600160a01b031614156105355760405162461bcd60e51b815260206004820152602160248201527f4552433732313a20617070726f76616c20746f2063757272656e74206f776e656044820152603960f91b60648201526084015b60405180910390fd5b336001600160a01b0382161480610551575061055181336103bf565b6105c35760405162461bcd60e51b815260206004820152603d60248201527f4552433732313a20617070726f76652063616c6c6572206973206e6f7420746f60448201527f6b656e206f776e6572206f7220617070726f76656420666f7220616c6c000000606482015260840161052c565b6105cd83836109c7565b505050565b6105dd335b82610a35565b6105f95760405162461bcd60e51b815260040161052c90611d67565b6105cd838383610ab4565b60008281526008602052604090206001015461061f81610c25565b6105cd8383610c2f565b6001600160a01b03811633146106995760405162461bcd60e51b815260206004820152602f60248201527f416363657373436f6e74726f6c3a2063616e206f6e6c792072656e6f756e636560448201526e103937b632b9903337b91039b2b63360891b606482015260840161052c565b6106a38282610cb5565b5050565b7f65d7a28e3265b37a6474929f336521b332c1681b933f6cb9f3376673440d862a6106d181610c25565b6106d9610d1c565b50565b6105cd83838360405180602001604052806000815250610882565b610700336105d7565b61071c5760405162461bcd60e51b815260040161052c90611d67565b6106d981610d6e565b6000818152600260205260408120546001600160a01b0316806103f85760405162461bcd60e51b8152602060048201526018602482015277115490cdcc8c4e881a5b9d985b1a59081d1bdad95b88125160421b604482015260640161052c565b60006001600160a01b0382166107ef5760405162461bcd60e51b815260206004820152602960248201527f4552433732313a2061646472657373207a65726f206973206e6f7420612076616044820152683634b21037bbb732b960b91b606482015260840161052c565b506001600160a01b031660009081526003602052604090205490565b7f65d7a28e3265b37a6474929f336521b332c1681b933f6cb9f3376673440d862a61083581610c25565b6106d9610d77565b60009182526008602090815260408084206001600160a01b0393909316845291905290205460ff1690565b60606001805461040d90611d2c565b6106a3338383610db4565b61088c3383610a35565b6108a85760405162461bcd60e51b815260040161052c90611d67565b6108b484848484610e83565b50505050565b60606103f882610eb6565b7f9f2df0fed2c77648de5860a4cc508cd0818c85b8b8a1ab4ceeef8d981c8956a66108ef81610c25565b60006108fa60095490565b905061090a600980546001019055565b6109148482610fbf565b6108b48184610fd9565b60008281526008602052604090206001015461093981610c25565b6105cd8383610cb5565b60006001600160e01b03198216637965db0b60e01b14806103f857506103f882611073565b6000818152600260205260409020546001600160a01b03166106d95760405162461bcd60e51b8152602060048201526018602482015277115490cdcc8c4e881a5b9d985b1a59081d1bdad95b88125160421b604482015260640161052c565b600081815260046020526040902080546001600160a01b0319166001600160a01b03841690811790915581906109fc82610725565b6001600160a01b03167f8c5be1e5ebec7d5bd14f71427d1e84f3dd0314c0f7b2291e5b200ac8c7c3b92560405160405180910390a45050565b600080610a4183610725565b9050806001600160a01b0316846001600160a01b03161480610a8857506001600160a01b0380821660009081526005602090815260408083209388168352929052205460ff165b80610aac5750836001600160a01b0316610aa184610490565b6001600160a01b0316145b949350505050565b826001600160a01b0316610ac782610725565b6001600160a01b031614610aed5760405162461bcd60e51b815260040161052c90611db4565b6001600160a01b038216610b4f5760405162461bcd60e51b8152602060048201526024808201527f4552433732313a207472616e7366657220746f20746865207a65726f206164646044820152637265737360e01b606482015260840161052c565b610b5c83838360016110c3565b826001600160a01b0316610b6f82610725565b6001600160a01b031614610b955760405162461bcd60e51b815260040161052c90611db4565b600081815260046020908152604080832080546001600160a01b03199081169091556001600160a01b0387811680865260038552838620805460001901905590871680865283862080546001019055868652600290945282852080549092168417909155905184937fddf252ad1be2c89b69c2b068fc378daa952ba7f163c4a11628f55a4df523b3ef91a4505050565b6106d981336110d0565b610c39828261083d565b6106a35760008281526008602090815260408083206001600160a01b03851684529091529020805460ff19166001179055610c713390565b6001600160a01b0316816001600160a01b0316837f2f8788117e7eff1d82e926ec794901d17c78024a50270940304540a733656f0d60405160405180910390a45050565b610cbf828261083d565b156106a35760008281526008602090815260408083206001600160a01b0385168085529252808320805460ff1916905551339285917ff6391f5c32d9c69d2a47ea670b442974b53935d1edc7fd64eb21e047a839171b9190a45050565b610d24611129565b6007805460ff191690557f5db9ee0a495bf2e6ff9c91a7834c1ba4fdd244a5e8aa4e537bd38aeae4b073aa335b6040516001600160a01b03909116815260200160405180910390a1565b6106d981611174565b610d7f6111b4565b6007805460ff191660011790557f62e78cea01bee320cd4e420270b5ea74000d11b0c9f74754ebdbfc544b05a258610d513390565b816001600160a01b0316836001600160a01b03161415610e165760405162461bcd60e51b815260206004820152601960248201527f4552433732313a20617070726f766520746f2063616c6c657200000000000000604482015260640161052c565b6001600160a01b03838116600081815260056020908152604080832094871680845294825291829020805460ff191686151590811790915591519182527f17307eab39ab6107e8899845ad3d59bd9653f200f220920489ca2b5937696c31910160405180910390a3505050565b610e8e848484610ab4565b610e9a848484846111fa565b6108b45760405162461bcd60e51b815260040161052c90611df9565b6060610ec182610968565b60008281526006602052604081208054610eda90611d2c565b80601f0160208091040260200160405190810160405280929190818152602001828054610f0690611d2c565b8015610f535780601f10610f2857610100808354040283529160200191610f53565b820191906000526020600020905b815481529060010190602001808311610f3657829003601f168201915b505050505090506000610f7160408051602081019091526000815290565b9050805160001415610f84575092915050565b815115610fb6578082604051602001610f9e929190611e4b565b60405160208183030381529060405292505050919050565b610aac84611307565b6106a382826040518060200160405280600081525061137b565b6000828152600260205260409020546001600160a01b03166110545760405162461bcd60e51b815260206004820152602e60248201527f45524337323155524953746f726167653a2055524920736574206f66206e6f6e60448201526d32bc34b9ba32b73a103a37b5b2b760911b606482015260840161052c565b600082815260066020908152604090912082516105cd9284019061190d565b60006001600160e01b031982166380ac58cd60e01b14806110a457506001600160e01b03198216635b5e139f60e01b145b806103f857506301ffc9a760e01b6001600160e01b03198316146103f8565b6110cb6111b4565b6108b4565b6110da828261083d565b6106a3576110e7816113ae565b6110f28360206113c0565b604051602001611103929190611e7a565b60408051601f198184030181529082905262461bcd60e51b825261052c91600401611a67565b60075460ff166111725760405162461bcd60e51b815260206004820152601460248201527314185d5cd8589b194e881b9bdd081c185d5cd95960621b604482015260640161052c565b565b61117d8161155c565b6000818152600660205260409020805461119690611d2c565b1590506106d95760008181526006602052604081206106d991611991565b60075460ff16156111725760405162461bcd60e51b815260206004820152601060248201526f14185d5cd8589b194e881c185d5cd95960821b604482015260640161052c565b60006001600160a01b0384163b156112fc57604051630a85bd0160e11b81526001600160a01b0385169063150b7a029061123e903390899088908890600401611eef565b602060405180830381600087803b15801561125857600080fd5b505af1925050508015611288575060408051601f3d908101601f1916820190925261128591810190611f2c565b60015b6112e2573d8080156112b6576040519150601f19603f3d011682016040523d82523d6000602084013e6112bb565b606091505b5080516112da5760405162461bcd60e51b815260040161052c90611df9565b805181602001fd5b6001600160e01b031916630a85bd0160e11b149050610aac565b506001949350505050565b606061131282610968565b600061132960408051602081019091526000815290565b905060008151116113495760405180602001604052806000815250611374565b80611353846115ff565b604051602001611364929190611e4b565b6040516020818303038152906040525b9392505050565b611385838361169c565b61139260008484846111fa565b6105cd5760405162461bcd60e51b815260040161052c90611df9565b60606103f86001600160a01b03831660145b606060006113cf836002611f5f565b6113da906002611f7e565b67ffffffffffffffff8111156113f2576113f2611b98565b6040519080825280601f01601f19166020018201604052801561141c576020820181803683370190505b509050600360fc1b8160008151811061143757611437611f96565b60200101906001600160f81b031916908160001a905350600f60fb1b8160018151811061146657611466611f96565b60200101906001600160f81b031916908160001a905350600061148a846002611f5f565b611495906001611f7e565b90505b600181111561150d576f181899199a1a9b1b9c1cb0b131b232b360811b85600f16601081106114c9576114c9611f96565b1a60f81b8282815181106114df576114df611f96565b60200101906001600160f81b031916908160001a90535060049490941c9361150681611fac565b9050611498565b5083156113745760405162461bcd60e51b815260206004820181905260248201527f537472696e67733a20686578206c656e67746820696e73756666696369656e74604482015260640161052c565b600061156782610725565b90506115778160008460016110c3565b61158082610725565b600083815260046020908152604080832080546001600160a01b03199081169091556001600160a01b0385168085526003845282852080546000190190558785526002909352818420805490911690555192935084927fddf252ad1be2c89b69c2b068fc378daa952ba7f163c4a11628f55a4df523b3ef908390a45050565b6060600061160c83611835565b600101905060008167ffffffffffffffff81111561162c5761162c611b98565b6040519080825280601f01601f191660200182016040528015611656576020820181803683370190505b5090508181016020015b600019016f181899199a1a9b1b9c1cb0b131b232b360811b600a86061a8153600a850494508461168f57611694565b611660565b509392505050565b6001600160a01b0382166116f25760405162461bcd60e51b815260206004820181905260248201527f4552433732313a206d696e7420746f20746865207a65726f2061646472657373604482015260640161052c565b6000818152600260205260409020546001600160a01b0316156117575760405162461bcd60e51b815260206004820152601c60248201527f4552433732313a20746f6b656e20616c7265616479206d696e74656400000000604482015260640161052c565b6117656000838360016110c3565b6000818152600260205260409020546001600160a01b0316156117ca5760405162461bcd60e51b815260206004820152601c60248201527f4552433732313a20746f6b656e20616c7265616479206d696e74656400000000604482015260640161052c565b6001600160a01b038216600081815260036020908152604080832080546001019055848352600290915280822080546001600160a01b0319168417905551839291907fddf252ad1be2c89b69c2b068fc378daa952ba7f163c4a11628f55a4df523b3ef908290a45050565b60008072184f03e93ff9f4daa797ed6e38ed64bf6a1f0160401b83106118745772184f03e93ff9f4daa797ed6e38ed64bf6a1f0160401b830492506040015b6d04ee2d6d415b85acef810000000083106118a0576d04ee2d6d415b85acef8100000000830492506020015b662386f26fc1000083106118be57662386f26fc10000830492506010015b6305f5e10083106118d6576305f5e100830492506008015b61271083106118ea57612710830492506004015b606483106118fc576064830492506002015b600a83106103f85760010192915050565b82805461191990611d2c565b90600052602060002090601f01602090048101928261193b5760008555611981565b82601f1061195457805160ff1916838001178555611981565b82800160010185558215611981579182015b82811115611981578251825591602001919060010190611966565b5061198d9291506119c7565b5090565b50805461199d90611d2c565b6000825580601f106119ad575050565b601f0160209004906000526020600020908101906106d991905b5b8082111561198d57600081556001016119c8565b6001600160e01b0319811681146106d957600080fd5b600060208284031215611a0457600080fd5b8135611374816119dc565b60005b83811015611a2a578181015183820152602001611a12565b838111156108b45750506000910152565b60008151808452611a53816020860160208601611a0f565b601f01601f19169290920160200192915050565b6020815260006113746020830184611a3b565b600060208284031215611a8c57600080fd5b5035919050565b80356001600160a01b0381168114611aaa57600080fd5b919050565b60008060408385031215611ac257600080fd5b611acb83611a93565b946020939093013593505050565b600080600060608486031215611aee57600080fd5b611af784611a93565b9250611b0560208501611a93565b9150604084013590509250925092565b60008060408385031215611b2857600080fd5b82359150611b3860208401611a93565b90509250929050565b600060208284031215611b5357600080fd5b61137482611a93565b60008060408385031215611b6f57600080fd5b611b7883611a93565b915060208301358015158114611b8d57600080fd5b809150509250929050565b634e487b7160e01b600052604160045260246000fd5b600067ffffffffffffffff80841115611bc957611bc9611b98565b604051601f8501601f19908116603f01168101908282118183101715611bf157611bf1611b98565b81604052809350858152868686011115611c0a57600080fd5b858560208301376000602087830101525050509392505050565b60008060008060808587031215611c3a57600080fd5b611c4385611a93565b9350611c5160208601611a93565b925060408501359150606085013567ffffffffffffffff811115611c7457600080fd5b8501601f81018713611c8557600080fd5b611c9487823560208401611bae565b91505092959194509250565b60008060408385031215611cb357600080fd5b611cbc83611a93565b9150602083013567ffffffffffffffff811115611cd857600080fd5b8301601f81018513611ce957600080fd5b611cf885823560208401611bae565b9150509250929050565b60008060408385031215611d1557600080fd5b611d1e83611a93565b9150611b3860208401611a93565b600181811c90821680611d4057607f821691505b60208210811415611d6157634e487b7160e01b600052602260045260246000fd5b50919050565b6020808252602d908201527f4552433732313a2063616c6c6572206973206e6f7420746f6b656e206f776e6560408201526c1c881bdc88185c1c1c9bdd9959609a1b606082015260800190565b60208082526025908201527f4552433732313a207472616e736665722066726f6d20696e636f72726563742060408201526437bbb732b960d91b606082015260800190565b60208082526032908201527f4552433732313a207472616e7366657220746f206e6f6e20455243373231526560408201527131b2b4bb32b91034b6b83632b6b2b73a32b960711b606082015260800190565b60008351611e5d818460208801611a0f565b835190830190611e71818360208801611a0f565b01949350505050565b7f416363657373436f6e74726f6c3a206163636f756e7420000000000000000000815260008351611eb2816017850160208801611a0f565b7001034b99036b4b9b9b4b733903937b6329607d1b6017918401918201528351611ee3816028840160208801611a0f565b01602801949350505050565b6001600160a01b0385811682528416602082015260408101839052608060608201819052600090611f2290830184611a3b565b9695505050505050565b600060208284031215611f3e57600080fd5b8151611374816119dc565b634e487b7160e01b600052601160045260246000fd5b6000816000190483118215151615611f7957611f79611f49565b500290565b60008219821115611f9157611f91611f49565b500190565b634e487b7160e01b600052603260045260246000fd5b600081611fbb57611fbb611f49565b50600019019056fea264697066735822122033d15cdba6b2ebdcc21bf6dfc1f262f806b2bd597df387cc9cc279305aec2bb064736f6c63430008090033",
  "linkReferences": {},
  "deployedLinkReferences": {}
}